{
  "_format": "hh-sol-artifact-1",
  "contractName": "LiquidityPool",
  "sourceName": "contracts/LiquidityPoolWithTokens.sol",
  "abi": [
    {
      "inputs": [
        {
          "internalType": "address",
          "name": "_tokenA",
          "type": "address"
        },
        {
          "internalType": "address",
          "name": "_tokenB",
          "type": "address"
        }
      ],
      "stateMutability": "nonpayable",
      "type": "constructor"
    },
    {
      "inputs": [
        {
          "internalType": "address",
          "name": "owner",
          "type": "address"
        }
      ],
      "name": "OwnableInvalidOwner",
      "type": "error"
    },
    {
      "inputs": [
        {
          "internalType": "address",
          "name": "account",
          "type": "address"
        }
      ],
      "name": "OwnableUnauthorizedAccount",
      "type": "error"
    },
    {
      "anonymous": false,
      "inputs": [
        {
          "indexed": true,
          "internalType": "address",
          "name": "previousOwner",
          "type": "address"
        },
        {
          "indexed": true,
          "internalType": "address",
          "name": "newOwner",
          "type": "address"
        }
      ],
      "name": "OwnershipTransferred",
      "type": "event"
    },
    {
      "inputs": [
        {
          "internalType": "uint256",
          "name": "amountA",
          "type": "uint256"
        },
        {
          "internalType": "uint256",
          "name": "amountB",
          "type": "uint256"
        }
      ],
      "name": "addLiquidity",
      "outputs": [],
      "stateMutability": "nonpayable",
      "type": "function"
    },
    {
      "inputs": [
        {
          "internalType": "address",
          "name": "",
          "type": "address"
        }
      ],
      "name": "liquidity",
      "outputs": [
        {
          "internalType": "uint256",
          "name": "",
          "type": "uint256"
        }
      ],
      "stateMutability": "view",
      "type": "function"
    },
    {
      "inputs": [],
      "name": "owner",
      "outputs": [
        {
          "internalType": "address",
          "name": "",
          "type": "address"
        }
      ],
      "stateMutability": "view",
      "type": "function"
    },
    {
      "inputs": [
        {
          "internalType": "uint256",
          "name": "amount",
          "type": "uint256"
        }
      ],
      "name": "removeLiquidity",
      "outputs": [],
      "stateMutability": "nonpayable",
      "type": "function"
    },
    {
      "inputs": [],
      "name": "renounceOwnership",
      "outputs": [],
      "stateMutability": "nonpayable",
      "type": "function"
    },
    {
      "inputs": [
        {
          "internalType": "uint256",
          "name": "amountA",
          "type": "uint256"
        }
      ],
      "name": "swapTokenAForTokenB",
      "outputs": [],
      "stateMutability": "nonpayable",
      "type": "function"
    },
    {
      "inputs": [
        {
          "internalType": "uint256",
          "name": "amountB",
          "type": "uint256"
        }
      ],
      "name": "swapTokenBForTokenA",
      "outputs": [],
      "stateMutability": "nonpayable",
      "type": "function"
    },
    {
      "inputs": [],
      "name": "tokenA",
      "outputs": [
        {
          "internalType": "contract IERC20",
          "name": "",
          "type": "address"
        }
      ],
      "stateMutability": "view",
      "type": "function"
    },
    {
      "inputs": [],
      "name": "tokenB",
      "outputs": [
        {
          "internalType": "contract IERC20",
          "name": "",
          "type": "address"
        }
      ],
      "stateMutability": "view",
      "type": "function"
    },
    {
      "inputs": [],
      "name": "totalLiquidity",
      "outputs": [
        {
          "internalType": "uint256",
          "name": "",
          "type": "uint256"
        }
      ],
      "stateMutability": "view",
      "type": "function"
    },
    {
      "inputs": [
        {
          "internalType": "address",
          "name": "newOwner",
          "type": "address"
        }
      ],
      "name": "transferOwnership",
      "outputs": [],
      "stateMutability": "nonpayable",
      "type": "function"
    }
  ],
  "bytecode": "0x60806040523480156200001157600080fd5b50604051620019eb380380620019eb833981810160405281019062000037919062000277565b33600073ffffffffffffffffffffffffffffffffffffffff168173ffffffffffffffffffffffffffffffffffffffff1603620000ad5760006040517f1e4fbdf7000000000000000000000000000000000000000000000000000000008152600401620000a49190620002cf565b60405180910390fd5b620000be816200014960201b60201c565b5081600160006101000a81548173ffffffffffffffffffffffffffffffffffffffff021916908373ffffffffffffffffffffffffffffffffffffffff16021790555080600260006101000a81548173ffffffffffffffffffffffffffffffffffffffff021916908373ffffffffffffffffffffffffffffffffffffffff1602179055505050620002ec565b60008060009054906101000a900473ffffffffffffffffffffffffffffffffffffffff169050816000806101000a81548173ffffffffffffffffffffffffffffffffffffffff021916908373ffffffffffffffffffffffffffffffffffffffff1602179055508173ffffffffffffffffffffffffffffffffffffffff168173ffffffffffffffffffffffffffffffffffffffff167f8be0079c531659141344cd1fd0a4f28419497f9722a3daafe3b4186f6b6457e060405160405180910390a35050565b600080fd5b600073ffffffffffffffffffffffffffffffffffffffff82169050919050565b60006200023f8262000212565b9050919050565b620002518162000232565b81146200025d57600080fd5b50565b600081519050620002718162000246565b92915050565b600080604083850312156200029157620002906200020d565b5b6000620002a18582860162000260565b9250506020620002b48582860162000260565b9150509250929050565b620002c98162000232565b82525050565b6000602082019050620002e66000830184620002be565b92915050565b6116ef80620002fc6000396000f3fe608060405234801561001057600080fd5b50600436106100a95760003560e01c80638da5cb5b116100715780638da5cb5b1461012e5780639c8f9f231461014c5780639cd441da14610168578063ad56238d14610184578063b8c876b1146101a0578063f2fde38b146101d0576100a9565b80630fc63d10146100ae57806315770f92146100cc578063507b0e6b146100ea5780635f64b55b14610106578063715018a614610124575b600080fd5b6100b66101ec565b6040516100c391906110ea565b60405180910390f35b6100d4610212565b6040516100e1919061111e565b60405180910390f35b61010460048036038101906100ff919061116a565b610218565b005b61010e610537565b60405161011b91906110ea565b60405180910390f35b61012c61055d565b005b610136610571565b60405161014391906111b8565b60405180910390f35b6101666004803603810190610161919061116a565b61059a565b005b610182600480360381019061017d91906111d3565b610942565b005b61019e6004803603810190610199919061116a565b610b5b565b005b6101ba60048036038101906101b5919061123f565b610e7a565b6040516101c7919061111e565b60405180910390f35b6101ea60048036038101906101e5919061123f565b610e92565b005b600160009054906101000a900473ffffffffffffffffffffffffffffffffffffffff1681565b60035481565b6000811161025b576040517f08c379a0000000000000000000000000000000000000000000000000000000008152600401610252906112c9565b60405180910390fd5b6000600160009054906101000a900473ffffffffffffffffffffffffffffffffffffffff1673ffffffffffffffffffffffffffffffffffffffff166370a08231306040518263ffffffff1660e01b81526004016102b891906111b8565b602060405180830381865afa1580156102d5573d6000803e3d6000fd5b505050506040513d601f19601f820116820180604052508101906102f991906112fe565b600260009054906101000a900473ffffffffffffffffffffffffffffffffffffffff1673ffffffffffffffffffffffffffffffffffffffff166370a08231306040518263ffffffff1660e01b815260040161035491906111b8565b602060405180830381865afa158015610371573d6000803e3d6000fd5b505050506040513d601f19601f8201168201806040525081019061039591906112fe565b836103a0919061135a565b6103aa91906113cb565b9050600081116103ef576040517f08c379a00000000000000000000000000000000000000000000000000000000081526004016103e69061146e565b60405180910390fd5b600160009054906101000a900473ffffffffffffffffffffffffffffffffffffffff1673ffffffffffffffffffffffffffffffffffffffff166323b872dd3330856040518463ffffffff1660e01b815260040161044e9392919061148e565b6020604051808303816000875af115801561046d573d6000803e3d6000fd5b505050506040513d601f19601f8201168201806040525081019061049191906114fd565b50600260009054906101000a900473ffffffffffffffffffffffffffffffffffffffff1673ffffffffffffffffffffffffffffffffffffffff1663a9059cbb33836040518363ffffffff1660e01b81526004016104ef92919061152a565b6020604051808303816000875af115801561050e573d6000803e3d6000fd5b505050506040513d601f19601f8201168201806040525081019061053291906114fd565b505050565b600260009054906101000a900473ffffffffffffffffffffffffffffffffffffffff1681565b610565610f18565b61056f6000610f9f565b565b60008060009054906101000a900473ffffffffffffffffffffffffffffffffffffffff16905090565b80600460003373ffffffffffffffffffffffffffffffffffffffff1673ffffffffffffffffffffffffffffffffffffffff16815260200190815260200160002054101561061c576040517f08c379a00000000000000000000000000000000000000000000000000000000081526004016106139061159f565b60405180910390fd5b6000600354600160009054906101000a900473ffffffffffffffffffffffffffffffffffffffff1673ffffffffffffffffffffffffffffffffffffffff166370a08231306040518263ffffffff1660e01b815260040161067c91906111b8565b602060405180830381865afa158015610699573d6000803e3d6000fd5b505050506040513d601f19601f820116820180604052508101906106bd91906112fe565b836106c8919061135a565b6106d291906113cb565b90506000600354600260009054906101000a900473ffffffffffffffffffffffffffffffffffffffff1673ffffffffffffffffffffffffffffffffffffffff166370a08231306040518263ffffffff1660e01b815260040161073491906111b8565b602060405180830381865afa158015610751573d6000803e3d6000fd5b505050506040513d601f19601f8201168201806040525081019061077591906112fe565b84610780919061135a565b61078a91906113cb565b905082600460003373ffffffffffffffffffffffffffffffffffffffff1673ffffffffffffffffffffffffffffffffffffffff16815260200190815260200160002060008282546107db91906115bf565b9250508190555082600360008282546107f491906115bf565b92505081905550600160009054906101000a900473ffffffffffffffffffffffffffffffffffffffff1673ffffffffffffffffffffffffffffffffffffffff1663a9059cbb33846040518363ffffffff1660e01b815260040161085892919061152a565b6020604051808303816000875af1158015610877573d6000803e3d6000fd5b505050506040513d601f19601f8201168201806040525081019061089b91906114fd565b50600260009054906101000a900473ffffffffffffffffffffffffffffffffffffffff1673ffffffffffffffffffffffffffffffffffffffff1663a9059cbb33836040518363ffffffff1660e01b81526004016108f992919061152a565b6020604051808303816000875af1158015610918573d6000803e3d6000fd5b505050506040513d601f19601f8201168201806040525081019061093c91906114fd565b50505050565b6000821180156109525750600081115b610991576040517f08c379a000000000000000000000000000000000000000000000000000000000815260040161098890611665565b60405180910390fd5b600160009054906101000a900473ffffffffffffffffffffffffffffffffffffffff1673ffffffffffffffffffffffffffffffffffffffff166323b872dd3330856040518463ffffffff1660e01b81526004016109f09392919061148e565b6020604051808303816000875af1158015610a0f573d6000803e3d6000fd5b505050506040513d601f19601f82011682018060405250810190610a3391906114fd565b50600260009054906101000a900473ffffffffffffffffffffffffffffffffffffffff1673ffffffffffffffffffffffffffffffffffffffff166323b872dd3330846040518463ffffffff1660e01b8152600401610a939392919061148e565b6020604051808303816000875af1158015610ab2573d6000803e3d6000fd5b505050506040513d601f19601f82011682018060405250810190610ad691906114fd565b5060008183610ae59190611685565b905080600460003373ffffffffffffffffffffffffffffffffffffffff1673ffffffffffffffffffffffffffffffffffffffff1681526020019081526020016000206000828254610b369190611685565b925050819055508060036000828254610b4f9190611685565b92505081905550505050565b60008111610b9e576040517f08c379a0000000000000000000000000000000000000000000000000000000008152600401610b95906112c9565b60405180910390fd5b6000600260009054906101000a900473ffffffffffffffffffffffffffffffffffffffff1673ffffffffffffffffffffffffffffffffffffffff166370a08231306040518263ffffffff1660e01b8152600401610bfb91906111b8565b602060405180830381865afa158015610c18573d6000803e3d6000fd5b505050506040513d601f19601f82011682018060405250810190610c3c91906112fe565b600160009054906101000a900473ffffffffffffffffffffffffffffffffffffffff1673ffffffffffffffffffffffffffffffffffffffff166370a08231306040518263ffffffff1660e01b8152600401610c9791906111b8565b602060405180830381865afa158015610cb4573d6000803e3d6000fd5b505050506040513d601f19601f82011682018060405250810190610cd891906112fe565b83610ce3919061135a565b610ced91906113cb565b905060008111610d32576040517f08c379a0000000000000000000000000000000000000000000000000000000008152600401610d299061146e565b60405180910390fd5b600260009054906101000a900473ffffffffffffffffffffffffffffffffffffffff1673ffffffffffffffffffffffffffffffffffffffff166323b872dd3330856040518463ffffffff1660e01b8152600401610d919392919061148e565b6020604051808303816000875af1158015610db0573d6000803e3d6000fd5b505050506040513d601f19601f82011682018060405250810190610dd491906114fd565b50600160009054906101000a900473ffffffffffffffffffffffffffffffffffffffff1673ffffffffffffffffffffffffffffffffffffffff1663a9059cbb33836040518363ffffffff1660e01b8152600401610e3292919061152a565b6020604051808303816000875af1158015610e51573d6000803e3d6000fd5b505050506040513d601f19601f82011682018060405250810190610e7591906114fd565b505050565b60046020528060005260406000206000915090505481565b610e9a610f18565b600073ffffffffffffffffffffffffffffffffffffffff168173ffffffffffffffffffffffffffffffffffffffff1603610f0c5760006040517f1e4fbdf7000000000000000000000000000000000000000000000000000000008152600401610f0391906111b8565b60405180910390fd5b610f1581610f9f565b50565b610f20611063565b73ffffffffffffffffffffffffffffffffffffffff16610f3e610571565b73ffffffffffffffffffffffffffffffffffffffff1614610f9d57610f61611063565b6040517f118cdaa7000000000000000000000000000000000000000000000000000000008152600401610f9491906111b8565b60405180910390fd5b565b60008060009054906101000a900473ffffffffffffffffffffffffffffffffffffffff169050816000806101000a81548173ffffffffffffffffffffffffffffffffffffffff021916908373ffffffffffffffffffffffffffffffffffffffff1602179055508173ffffffffffffffffffffffffffffffffffffffff168173ffffffffffffffffffffffffffffffffffffffff167f8be0079c531659141344cd1fd0a4f28419497f9722a3daafe3b4186f6b6457e060405160405180910390a35050565b600033905090565b600073ffffffffffffffffffffffffffffffffffffffff82169050919050565b6000819050919050565b60006110b06110ab6110a68461106b565b61108b565b61106b565b9050919050565b60006110c282611095565b9050919050565b60006110d4826110b7565b9050919050565b6110e4816110c9565b82525050565b60006020820190506110ff60008301846110db565b92915050565b6000819050919050565b61111881611105565b82525050565b6000602082019050611133600083018461110f565b92915050565b600080fd5b61114781611105565b811461115257600080fd5b50565b6000813590506111648161113e565b92915050565b6000602082840312156111805761117f611139565b5b600061118e84828501611155565b91505092915050565b60006111a28261106b565b9050919050565b6111b281611197565b82525050565b60006020820190506111cd60008301846111a9565b92915050565b600080604083850312156111ea576111e9611139565b5b60006111f885828601611155565b925050602061120985828601611155565b9150509250929050565b61121c81611197565b811461122757600080fd5b50565b60008135905061123981611213565b92915050565b60006020828403121561125557611254611139565b5b60006112638482850161122a565b91505092915050565b600082825260208201905092915050565b7f416d6f756e74206d7573742062652067726561746572207468616e207a65726f600082015250565b60006112b360208361126c565b91506112be8261127d565b602082019050919050565b600060208201905081810360008301526112e2816112a6565b9050919050565b6000815190506112f88161113e565b92915050565b60006020828403121561131457611313611139565b5b6000611322848285016112e9565b91505092915050565b7f4e487b7100000000000000000000000000000000000000000000000000000000600052601160045260246000fd5b600061136582611105565b915061137083611105565b925082820261137e81611105565b915082820484148315176113955761139461132b565b5b5092915050565b7f4e487b7100000000000000000000000000000000000000000000000000000000600052601260045260246000fd5b60006113d682611105565b91506113e183611105565b9250826113f1576113f061139c565b5b828204905092915050565b7f496e73756666696369656e74206c697175696469747920666f7220746865207360008201527f7761700000000000000000000000000000000000000000000000000000000000602082015250565b600061145860238361126c565b9150611463826113fc565b604082019050919050565b600060208201905081810360008301526114878161144b565b9050919050565b60006060820190506114a360008301866111a9565b6114b060208301856111a9565b6114bd604083018461110f565b949350505050565b60008115159050919050565b6114da816114c5565b81146114e557600080fd5b50565b6000815190506114f7816114d1565b92915050565b60006020828403121561151357611512611139565b5b6000611521848285016114e8565b91505092915050565b600060408201905061153f60008301856111a9565b61154c602083018461110f565b9392505050565b7f496e73756666696369656e74206c697175696469747900000000000000000000600082015250565b600061158960168361126c565b915061159482611553565b602082019050919050565b600060208201905081810360008301526115b88161157c565b9050919050565b60006115ca82611105565b91506115d583611105565b92508282039050818111156115ed576115ec61132b565b5b92915050565b7f416d6f756e7473206d7573742062652067726561746572207468616e207a657260008201527f6f00000000000000000000000000000000000000000000000000000000000000602082015250565b600061164f60218361126c565b915061165a826115f3565b604082019050919050565b6000602082019050818103600083015261167e81611642565b9050919050565b600061169082611105565b915061169b83611105565b92508282019050808211156116b3576116b261132b565b5b9291505056fea2646970667358221220a6fae88afd0f5c9b1967bf019d5ffb1a5ea60301486a76e43e771ad30d136b7664736f6c63430008180033",
  "linkReferences": {},
  "deployedLinkReferences": {}
}